:020000040800F2
:100000000000022029B30008D580000881B3000851
:10001000D9800008DD800008E180000800000000B1
:10002000000000000000000000000000E580000863
:10003000E980000800000000ED800008F180000861
:1000400081B3000881B3000881B3000881B30008C0
:1000500081B3000881B3000881B3000881B30008B0
:1000600081B3000881B3000881B30008F58000085F
:10007000018100080D81000881B3000881B30008E8
:1000800081B3000881B300081981000881B300081A
:1000900081B3000881B3000881B3000881B3000870
:1000A00081B3000881B3000881B3000881B3000860
:1000B00081B3000881B3000881B3000881B3000850
:1000C00081B3000881B3000881B3000881B3000840
:1000D00081B3000881B3000881B3000881B3000830
:1000E00081B3000881B300080000000081B300085C
:1000F00081B3000881B3000881B3000881B3000810
:1001000081B3000881B3000881B3000881B30008FF
:1001100081B3000881B3000881B3000881B30008EF
:1001200081B3000881B3000881B3000881B30008DF
:1001300081B3000881B3000881B3000881B30008CF
:1001400000000000000000000000000000000000AF
:1001500081B3000881B3000881B3000881B30008AF
:1001600081B3000881B3000881B3000881B300089F
:1001700081B3000881B3000881B3000800000000CB
:1001800081B3000881B3000881B3000881B300087F
:1001900081B3000881B3000881B3000881B300086F
:1001A00081B3000881B3000881B3000881B300085F
:1001B00081B3000881B3000881B3000881B300084F
:1001C00081B3000881B3000881B3000881B300083F
:1001D00081B3000881B300082581000881B30008BD
:1001E00081B3000881B3000881B3000881B300081F
:1001F00081B3000881B3000881B3000881B300080F
:1002000081B3000881B3000881B3000881B30008FE
:1002100081B3000881B3000881B3000881B30008EE
:1002200081B3000881B3000881B30008000000001A
:1002300081B3000881B300080000000081B300080A
:1002400081B3000881B3000881B3000881B30008BE
:1002500081B3000881B3000881B3000881B30008AE
:1002600081B3000881B3000881B3000881B300089E
:1002700081B3000881B3000881B3000800000000CA
:1002800081B3000881B3000881B3000800000000BA
:080290000000000081B300082A
:1002A00010B5054C237833B9044B13B10448AFF3B0
:1002B00000800123237010BD4401002000000000D5
:1002C00044C8000808B5034B1BB103490348AFF30A
:1002D000008008BD000000004801002044C800085C
:1002E00038B50E4D2B780BB9012038BD4FF47A721A
:1002F0000B4904460868B2FBF3F3B0FBF3F000F0DF
:10030000FBFF0F2CF0D80028EED1002221464FF041
:10031000FF3000F0ADFF00206C6038BD0000002011
:100320003C00002030B5032083B000F08DFF124D5B
:1003300003F0CAFA114A12499369124CC3F303231A
:10034000CB5C03F01F0320FA03F300202B609269BB
:1003500002F00F028A5C02F01F02D3402360FFF715
:10036000BFFF10B1012003B030BD019007F0A0FE27
:10037000019803B030BD00BF3C000020004402588B
:1003800068C8000840000020034A044B11681B782D
:100390000B441360704700BF700200200000002073
:1003A000014B1868704700BF7002002038B5044642
:1003B000FFF7F6FF0546631C02D0044B1B781C4474
:1003C000FFF7EEFF401BA042FAD338BD000000202B
:1003D000014B1868000C70470010005C034A13685A
:1003E00023F0407318431060704700BF0040005274
:1003F0002DE9F047604C0668A64230D05F4B9E4224
:100400002DD05F4CA568B46864072DD490F85030A7
:10041000012B29D005F01F05012390460F46092D19
:10042000044680F8503005D90023012084F850306C
:10043000BDE8F08740F22120E840C007F4D5B3685A
:10044000D90714D4B2684F4B1A4254D0636D43F0AD
:1004500010036365A36D43F00103A365E4E74A4C11
:10046000A568B4686407D1D50220BDE8F087434A87
:10047000B21A18BF0122616D444B0B4043F48073E4
:10048000636505B11AB1636D23F480136365636D11
:1004900013F480532DD0A36D23F00603A365E16C04
:1004A0003A464FF01C0C3A4D3A4843463A4FCD631A
:1004B000002508640846CF6406F14001C6F800C074
:1004C0007768D4F82CC047F0100784F85050776054
:1004D000F56825F0030545EA0C05F56001F07CFAA6
:1004E00022682E4B91680B4043F004039360BDE8F3
:1004F000F087A365D3E7B268284B134043F00103AC
:10050000B360FFF74DFF26681B4B81469E422ED0FD
:1005100003F580739E422AD0194B9A68174B12F04C
:100520001F0F0CBF012200229E4218BF42F00102A1
:10053000FAB1DFF868A00DE0B36803EA0A0343F0FC
:100540000103B360FFF72CFFA0EB090002283FF680
:100550007DAF26683368DB0789D4B368DA07EBD54B
:10056000FFF71EFFA0EB09000228F2D96EE7064B49
:10057000D3E71E467FE700BF002002400021024073
:10058000006302583F00008000230240FEF0FFFF9E
:1005900039080008A1050008A1080008C0FFFF7F76
:1005A00008B5806B06F06EFE08BD00BF704700BF47
:1005B000704700BFF8B59C4A0446036893421D6823
:1005C0005E6800F0838002F5807293427ED0974A85
:1005D0009768AA0707F01F0702D5B00700F19A80B5
:1005E0006A0768D5700766D5626DD00603D4626D60
:1005F00042F400726265DA6812F4406F1CD18C4AD2
:10060000934200F0E980DA68910415D41A68120761
:1006100012D59A68500700F1FC805A6822F00C024B
:100620005A60636D23F480736365636DD90403D4EA
:10063000636D43F001036365204606F021FE2368E5
:100640000C221A60AA063CD5B0063AD5626DD006D7
:1006500003D4626D42F4005262657548DA6C8342DD
:10066000D96802F4C07201F4406161D0D868002AF0
:1006700067D000F000720A4300F0B380204600F01B
:1006800079FD236860221A60290602D5320600F13E
:100690008C80E80502D5F10500F19280AA0501D50C
:1006A000B00576D4E90601D5F20611D4680501D566
:1006B00071055ED4F8BD2907C4D5320794D4AA06C3
:1006C000C2D46906E0D57206DED5BFE7594A7FE796
:1006D000226B82B1002F00F08F80534A934200F0CA
:1006E000A18002F58072934200F09C804F4A92688C
:1006F00012F4404F0BD0636D204643F48063636572
:10070000A36D43F00203A365FFF752FF2368102295
:100710001A60CBE7636DD90603D4636D43F40063BD
:100720006365204600F02EFD236802221A6057E719
:10073000B81F01289AD9002F98D03B48C068002ADA
:1007400097D11A68520699D5810297D49A681207F0
:1007500056D45A6822F060025A60636D23F48053C5
:100760006365636DD80589D4636D43F001036365E8
:1007700084E7626D4FF48061204642F480426265F6
:10078000A26D42F00802A2651960BDE8F84000F0D1
:10079000F3BC636D204643F48023636500F0F0FCF6
:1007A00023684FF400721A607CE7636D204643F4BF
:1007B00080336365FFF7FAFE236880221A6068E7DA
:1007C000636D204643F40033636500F0D7FC236873
:1007D0004FF480721A6061E7092F06D9124AD26875
:1007E00012E781043FF54AAFABE740F22122FA401D
:1007F000D2073FF508AFF1E7DA68970787D07AE7C5
:10080000636D43F010036365A36D43F00103A365BB
:1008100034E7636D43F010036365A36D43F0010398
:10082000A36509E7034A62E700200240006302581B
:100830000021024000230240836B5A6D12F0500FDA
:100840005A6D10B51DD1196842F400725A650A68D4
:1008500012F0080FCA681BD012F4406F0DD1CA689D
:1008600094040AD45A6D22F480725A655A6DD104E8
:1008700003D45A6D42F001025A65184606F000FD95
:1008800010BDD20607D4DB6CBDE81040DB6C184706
:100890009007F2D1E6E71846FFF78AFE10BD00BFC9
:1008A00008B5836B5A6D184642F040025A659A6D3E
:1008B00042F004029A65FFF77BFE08BD0246002065
:1008C00092F850302DE9F041012B82B0019000F0F8
:1008D0003481136801209C6882F85000670743D474
:1008E0000C68C4F31305C4F38467002D40F0A580A1
:1008F000B8404C684FF01F0CDD69A60904EA0C04EF
:10090000284303F1300506F00C060CFA04FCD8610C
:1009100007FA04F4705920EA0C00204370519868DB
:10092000460700F188809D6815F0080526D0986874
:10093000C50717D4CE680C6806F01807BC48D3F872
:10094000C050F840C4F31307DFF80CC3204025EA79
:100950000705664540EA0500C3F8C00000F0A68020
:10096000002C72DB002003E0536D43F0200353653D
:10097000002382F8503002B0BDE8F0810C6803F12A
:10098000140607208F684FEAD45CC4F304540CF0BB
:10099000040C00FA04FE07FA04F4A64F5CF8060003
:1009A00020EA0E0020434CF80600386800F0704042
:1009B000B0F1805F00F0B880DC68486914F0100F77
:1009C000DC6840F0D980C4F38204640000FA04FCBF
:1009D000D1F810E00868BEF1040F00F0B28003F116
:1009E000600600F0F8444F7E56F82E00012F0F7E6F
:1009F00000F0004014BF4FF000084FF000482043C3
:100A0000012F40EA0C0046F82E000C6956F824002D
:100A100020F0004040EA080046F82400086904D1AC
:100A200000F01F004FF400658540186920F4F04085
:100A300005431D617BE7986879E794FAA4F4B4FA5A
:100A400084F404F01F04A04053E77B498B4200F07C
:100A5000BD8001F580718B4200F0B880774E784DF3
:100A6000A868B16800F0E076C94301F001010029EF
:100A700000F0BA8073498C4200F0F08072498C42D9
:100A800000F00E8171498C427FF46CAF41023FF55A
:100A900069AF6A498B427FF465AFA96846F4800369
:100AA000002021F0E0710B43AB6061E7002F69D0BB
:100AB00094FAA4F0B0FA80F0013000F01F00092889
:100AC00000F2988094FAA4F0B0FA80F094FAA4F5B9
:100AD0000126B5FA85F501303544800605F01F057D
:100AE00000F0F84006FA05F5284394FAA4F4B4FAA5
:100AF00084F4344404F01F0404EB44042405044348
:100B000003F114064FF0070C8868E70DC4F3045492
:100B100007F004070CFA04FCA040BD5925EA0C04B8
:100B20000443BC510C681BE7DC684869C4F3820CC1
:100B30004FEA4C0C00FA0CFC4AE7022002B0BDE878
:100B4000F0811C6E800604F0F844844239D05C6E5B
:100B500004F0F844A0422FD09C6E04F0F844A04268
:100B600025D0DC6E04F0F844A0427FF4E0AED86EED
:100B700020F00040D866DAE6640804F0080400FAC1
:100B800004FC25E70120A40E044404F01F05A4067C
:100B900000FA05F6092D04F0F84005EB450440EA9B
:100BA0000600ABD91E3C240544F00074A7E79C6EF8
:100BB00024F000449C66D4E75C6E24F000445C663C
:100BC000CAE71C6E24F000441C66C0E72049214E91
:100BD000194F0D468868BF68B16800F0E076394368
:100BE000C94301F0010142E7536D012043F02003A6
:100BF0005365BDE694FAA4F0B0FA80F094FAA4F537
:100C00000126B5FA85F501303544800605F01F054B
:100C100000F0F84006FA05F5284394FAA4F4B4FA73
:100C200084F4344404F01F0404EB4404BAE700BF26
:100C3000FFFF0F000010005C00200240006002581F
:100C400000630258000084CB000052C70000B8CFF8
:100C500000230240002102400000FF4704023FF54C
:100C600081AE17498B427FF47DAE164B46F40001EE
:100C7000A8681B6820F0E070134C9B090143A4FB9B
:100C80000303A9609B095B000193019B002B3FF4C8
:100C900069AE019B013B0193019B002BF9D161E6F9
:100CA000C0013FF55FAE06498B427FF45BAEA96899
:100CB00046F08073002021F0E0710B43AB6057E6F3
:100CC000006002583C000020632D3E0538B50368E3
:100CD0009968890702D59B68002038BD9968CA07C2
:100CE00023D59968044601F00D01012908D0636DF0
:100CF000012043F010036365A36D0343A36538BD72
:100D0000986803210A4A024042F002029A60196080
:100D1000FFF746FB054604E0FFF742FB401B0228B5
:100D2000E5D823689B68DB07F6D4002038BD00BFF8
:100D3000C0FFFF7F38B5524A05460368934227D06B
:100D400002F58072934223D04E4B9B6813F4403FD0
:100D500014BF0123002323B302F060FF6B68044635
:100D6000B3F5003F62D0B3F5403F72D0B3F5803F9A
:100D70005CD0FFF72DFB41F20303984232D8424A80
:100D80002B68944228D99A6842F480729A6038BDE0
:100D90003E4B9B6813F4403F14BF01230023002BFC
:100DA000DAD14FF4002003F05DFF6B680446B3F521
:100DB000C01F49D03ED9B3F5101F4ED027D9B3F587
:100DC000201F48D0B3F5301FD3D1FFF701FB41F20C
:100DD0000303984205D82B689A6822F480729A60BF
:100DE00038BD240A64082A4A2B6894420AD9294A41
:100DF000944214D9284A94429A6832D942F44072F3
:100E00009A6038BD9A6822F440729A6038BDB3F592
:100E1000E01F24D0B3F5001FABD14409A9E79A68BD
:100E200022F4407242F480729A6038BD1B0CB4FB0D
:100E3000F3F49EE7B3F5402F06D018D8B3F5802F12
:100E400002D0B3F5002F94D19B0C5B00B4FBF3F4FC
:100E50008FE784088DE7C4098BE7840989E70409D3
:100E600087E722F4407242F400729A6038BDB3F50D
:100E7000801FE9D0B3F5A01F7FF47BAFE4E700BF8C
:100E80000020024000630258002D3101002302407F
:100E9000105E5F0020BCBE0040787D0170B500236D
:100EA00082B00193002800F0AA80456D0446002D11
:100EB00000F09A80226893689D0003D59168774B73
:100EC0000B4093609368D80015D4754B90681B68ED
:100ED000744D9B097449A5FB035301409B0941F0E4
:100EE000805191600193019B2BB1019B013B0193C8
:100EF000019B002BF9D19368D90067D4636D01255C
:100F000043F010036365A36D2B43A365936813F04F
:100F1000040F636D60D1DB065ED4636D23F48173CF
:100F200043F0020363659368DE0713D45F4B9A4274
:100F300000F0928003F580739A4200F08D805C4B44
:100F40009B68D90706D45B4A9368616823F47C13D5
:100F50000B439360FFF73CFA41F20303627D984232
:100F6000217F6CD9A36852030E04206B102B00F074
:100F70008E801A4332430243012903D1236A013B85
:100F800042EA4342636A23B103F47873A16A0B43D4
:100F90001A4323684849D86801400A43DA609A68CE
:100FA00012F0040F9A6801D112072CD5E268012AC9
:100FB0004AD01A6B22F00F021A63636D284623F0A1
:100FC000030343F00103636502B070BD936800251D
:100FD00013F0040F636D9ED0636D012543F0100381
:100FE0002846636502B070BD04F0E4FD2268A56583
:100FF000936884F850509D007FF564AF5EE701254B
:10100000284602B070BDD8682C4A217D0240E06AB3
:1010100042EA813294F8381002430129DA6025D07F
:101020001A6922F001021A611A692046616B22F0E6
:1010300070420A431A61FFF77DFE2368B6E7520348
:10104000A3680E04206B94E7196BA26921F00F01CD
:10105000013A0A431A63B0E7144A194B92689B6835
:101060001343D8073FF576AF164A6DE7D4E9102150
:10107000A06C0A43144E196942F001020E40E16B64
:1010800002430139324342EA01421A61CCE740F09F
:101090001C03134343EA06026EE700BFC0FFFF5F75
:1010A0003C000020632D3E05C0FFFF6F0020024082
:1010B000006002580063025803C0F0FFFCBFFFFF4E
:1010C00000210240002302401EF800FCF0B590F819
:1010D000505083B00026012D019636D001230446DE
:1010E00015460E4680F85030FFF7F0FD20BB676DC7
:1010F00005F080431C4D06F48031226843F0004324
:101100003D401A4E0B431A4945F002056565956846
:101110002E403343936005E0019B01330193019B13
:101120008B4215D89368002BF6DB636D23F0030325
:1011300043F00103636503E0636D43F010036365EF
:10114000002384F8503003B0F0BD022003B0F0BD9E
:10115000636D0022012023F0120384F8502043F035
:101160001003636503B0F0BDFDEEFFFFC0FFFE3F5F
:10117000FFF7C325704700BF704700BF704700BF2F
:10118000704700BF704700BF90F85020012A4BD035
:101190000346294A0120F0B41C680E68944283F883
:1011A000500008D05A6D002142F0200283F8501000
:1011B0005A65F0BC7047214DAA6852070AD5A2684B
:1011C0005A6D012042F020025A65002283F8502017
:1011D000F0BC7047A06810F00400F1D1C6B1DFF890
:1011E00064C04F68DCF8082022F440423A43CCF84F
:1011F0000820A468AA682243D40713D48A68DCF8BC
:1012000008400F49164321400E43CCF80860DCE744
:101210000C498A6822F440428A60A068AA680243A6
:10122000D00703D50020D0E7022070478C683046F5
:10123000034A22408A60C8E70020024000210240A1
:10124000E0F0FFFF0023024007490002074BCA6895
:1012500000F4E06010B44FF6FF0422405DF8044B48
:1012600013431843C860704700ED00E00000FA0522
:10127000174BDB68C3F3022330B4C3F107051C1D11
:10128000042D28BF0425062C18D9033B4FF0FF344A
:101290009C4022EA04044FF0FF32002802FA05F2D3
:1012A00021EA020101FA03F242EA04024FEA0212C1
:1012B000D2B206DB074B1A5430BC704700242346D9
:1012C000E9E700F00F00044B1A5430BC704700BF30
:1012D00000ED00E000E400E014ED00E0002807DB92
:1012E00000F01F0101234009024A8B4042F82030E0
:1012F000704700BF00E100E00138B0F1807F0DD2FF
:10130000074B0022072130B4F025064C58601046E8
:1013100084F823509A60196030BC704701207047F0
:1013200010E000E000ED00E0BFF35F8F044A002012
:101330000449536A23F4803353624860704700BF06
:1013400000ED00E090ED00E0064A40F00100064BA1
:101350005860536A43F480335362BFF34F8FBFF337
:101360006F8F704700ED00E090ED00E0124A437887
:101370009360017811B9D16011617047436870B40E
:10138000D360C37A047B1B06857A867B43EA0473A9
:10139000447B0B43017A43EAC543C57B43EA84435C
:1013A000447A43EA464343EA054343EA042343EAD3
:1013B000410370BC1361704790ED00E00268014684
:1013C000344B354830B4354C354DA24218BF9A42A3
:1013D00004F148040CBF01230023824208BF43F0FC
:1013E00001034830AA4208BF43F001034835A24236
:1013F00008BF43F001034834824208BF43F00103B1
:1014000000F56270AA4208BF43F0010305F562755A
:10141000A24208BF43F0010304F56274824208BF90
:1014200043F001034830AA4208BF43F001034835A6
:10143000A24208BF43F001034834824208BF43F090
:1014400001034830AA4208BF43F00103A24208BF8B
:1014500043F00103824208BF43F0010313B9114B6B
:101460009A4212D1D3B2104D1048103B104C10408C
:10147000A5FB03531B0903F00702032BA25C88BFE3
:101480000430CA65886530BC704722F0FF0088656B
:10149000F9E700BF1000024040000240280002406F
:1014A00058000240B8040240ABAAAAAA00FCFFFF01
:1014B00060C800082DE9F0470446FEF771FF002CD4
:1014C00000F0A38123680546B04A934249D0183200
:1014D000934246D03032AE48AE49834218BF934261
:1014E00000F148000CBF012200228B4208BF42F0ED
:1014F00001023031834208BF42F0010230308B429A
:1015000008BF42F0010201F55C71834208BF42F05E
:10151000010200F55C708B4208BF42F001023031DD
:10152000834208BF42F0010230308B4208BF42F0D4
:1015300001023031834208BF42F0010230308B4259
:1015400008BF42F001023031834208BF42F001027D
:101550008B4208BF42F001021AB98F4A934240F011
:1015600086810222002184F835201A6884F834101C
:1015700022F001021A6006E0FEF712FF401B052868
:1015800000F23B8123681A68D107F5D4D4E9022020
:10159000216902431F68D4E905650A4332437F4E3F
:1015A000D4E907102A433E400A43616A02430429F2
:1015B00042EA060200F02C811A605A6922F0070202
:1015C000114359612046FFF7F9FEE26D3F2302F017
:1015D0001F029340836022686C4B71486C498242C1
:1015E00018BF9A426F4E6B4D00F160000CBF012393
:1015F0000023DFF8CCC18A4208BF43F00103603109
:10160000DFF8C081B24208BF43F00103DFF8B8E160
:10161000654F06F58066AA4208BF43F0010305F551
:101620008065DFF8A8A1824208BF43F0010300F5FE
:101630008060DFF864918A4208BF43F0010301F53E
:101640008061624508BF43F00103DFF884C1424571
:1016500008BF43F00103A2EB0C0CDFF87881724560
:1016600008BF43F00103BCFA8CFCA2EB0808DFF8CA
:1016700068E1BA4208BF43F001034FEA5C1CA2EBE9
:101680000A07B8FA88F8B24208BF43F001030AF12A
:10169000280AA2EB0E064FEA5818AA4208BF43F0E8
:1016A0000103B7FA87F70EF1280EA2EB0A05824272
:1016B00008BF43F001037F09B6FA86F6A2EB0E00DD
:1016C0008A4208BF43F00103B5FA85F576090AF1AD
:1016D000280A4A4508BF43F001036D09B0FA80F0BB
:1016E000A2EB0A014CEA03030EF1280E4009B1FAFD
:1016F00081F148EA0303A2EB0E0E49093B43BEFA0F
:101700008EFE33434FEA5E1E2B4303430B4302D14D
:10171000BEF1000F6AD04CEA080CD3B247EA0C07BE
:101720003E433543284301435EEA010100F0FE8059
:101730001E4D083B1E4A0120A5FB03531D4D1B09EE
:1017400065661A4403F01F03920000FA03F3226651
:10175000A366A068802841D06068C6B20138072817
:1017600016606B603ED8701E072875D8002900F0FF
:101770000981114B114933449B0001228240C4E985
:101780001B316267002018604A602FE010000240A1
:101790004000024070000240B80402403F8010FE4A
:1017A000280002405800024040040240CDCCCCCC7E
:1017B00000960016805802583F960016405902586D
:1017C000B80002401004024028040240305402587D
:1017D000085402581C5402584454025800216160B5
:1017E00011606B600023C4E91B3363670020012391
:1017F000606584F83530BDE8F0872022032301209E
:10180000626584F83530BDE8F0870120BDE8F087D7
:10181000D4E90B61A76A46EA010047F004010243DC
:101820001A605A6922F007021143002E3FF4C9AE34
:10183000B5B1B5F5005F00F09780022F05D9032FF1
:101840007FF4BFAEF2017FF5BCAE01234022184603
:10185000626584F83530CEE7D4E91B31626F91E7D9
:10186000012F7CD0EED3022F7FF4ABAEEAE74C4AD7
:101870004C494D488B4218BF934201F128014B4D12
:101880000CBF01220022834208BF42F001023C301B
:101890008B4208BF42F001023C31AB4208BF42F02C
:1018A0000102834208BF42F001028B4208BF42F0AE
:1018B000010212B93E4A93426BD10220A2683D490F
:1018C000002584F83500402A186884F8345001EA6D
:1018D00000015CD0802A14BF2F464FF48047226954
:1018E0002046E668D2086569DFF8E8C042EAD60219
:1018F000A66942EAD502E56942EAD6022E4E42EADC
:10190000D5021E44256A42EA1512ACFB06560A436C
:1019100031093A4389001A60E165FFF74FFDE26D36
:10192000012302F01F029340436054E6A3F110002C
:10193000224B234D1344A5FB0050A82B4FEA101057
:1019400000D808301F4A00F01F05012302441E483A
:10195000AB4092000546A366C4E91820F9E6B6F14B
:10196000C07F7FF42EAE70E7032F3FF62AAE01A2B0
:1019700052F827F04B180008451800084B180008CB
:101980005F190008114B124933449B00F5E61027FC
:10199000A5E7402203230120626584F835302AE759
:1019A000085402581C5402583054025858540258D3
:1019B000945402580F00FEFFF8ABFDA7F0FBFDBFEB
:1019C000ABAAAAAA00820010800802403F82001041
:1019D00040090240CDCCCCCC002800F004812DE998
:1019E000F047054690F83400012800F038810120C6
:1019F00095F83540844285F8340007D000224FF432
:101A0000006385F834206B65BDE8F0872C684FF0E3
:101A1000020E9B484FF0000C9A4F9B4EBC4218BFE1
:101A2000844207F1480785F835E00CBF012000200B
:101A3000DFF864E2B44208BF40F001003036C5F878
:101A400054C0BC4208BF40F0010007F56277DFF8E0
:101A50004CC2B44208BF40F0010006F562767445FE
:101A600008BF40F001000EF5687EBC4208BF40F0A0
:101A700001006037B44208BF40F0010060366445A1
:101A800008BF40F001000CF1600C744508BF40F045
:101A900001000EF1600EBC4208BF40F00100A7F546
:101AA0008C67B44208BF40F00100A6F58C6664451F
:101AB00008BF40F00100D5F858C0744514BF8246F5
:101AC00040F0010AB44218BFBC4227680CBF01268F
:101AD000002627F00107276003D0BAF1000F00F0BD
:101AE0008480002E00F081806F6ED5E91A0E786038
:101AF000BEF1000F07D0D5E91C7078601EB9BAF1AD
:101B0000000F00F0CD80EF6D4FF03F09D5F8088051
:101B100007F01F07B8F1400F09FA07F7CCF8087073
:101B2000276827F480272760636000F0A580A16004
:101B3000E2602F6C002E40F09580BAF1000F00F0AB
:101B4000EE80236823F01E0343F0160323602FB1B9
:101B5000236843F008032360002E2CD14B4B4C4AE2
:101B60004C49944218BF9C4202F13C020CBF012335
:101B700000238C4208BF43F001032831944208BF80
:101B800043F0010328328C4208BF43F0010328319F
:101B9000944208BF43F0010328328C4208BF43F04F
:101BA0000103944208BF43F0010313B9BAF1000FD7
:101BB00012D0D5F86CE02B6E1A68D20303D51A68E0
:101BC00042F480721A60BEF1000F05D0DEF80030DA
:101BD00043F48073CEF800302368002043F0010303
:101BE0002360BDE8F08701207047284FDFF8A0E0B0
:101BF000DFF8A080744518BFBC420EF13C0E0CBF4C
:101C000001270027444508BF47F0010708F12808CD
:101C1000744508BF47F001070EF1280E444508BF80
:101C200047F0010708F12808744508BF47F001078D
:101C30000EF1280E444508BF47F00107744508BF60
:101C400047F0010717B9BAF1000F29D06F6ED5E937
:101C50001A0E7860BEF1000F7FF44DAF4FE70220FF
:101C6000BDE8F087236823F01E0343F016032360CA
:101C7000002F7FF46DAF9EE7A260E16059E700BFDF
:101C80005800024040000240700002401C540258BC
:101C90000854025830540258B80002404004024030
:101CA000284FDFF8A880DFF8A8E0444518BFBC4201
:101CB00008F128080CBF01270027744508BF47F02A
:101CC00001070EF1280E444508BF47F0010708F14F
:101CD0002808744508BF47F001070EF1280E444557
:101CE00008BF47F00107744508BF47F0010727B94F
:101CF000154FBC4218BF2F6C11D1EF6D4FF0010E84
:101D0000D5F8088007F01F07B8F1400F0EFA07F763
:101D1000CCF80470636010D0A1602F6CE26023687F
:101D200023F00E0343F00A032360002F3FF416AFA5
:101D3000236843F00403236010E7A2602F6CE16086
:101D4000EDE700BF08540258945402581C5402583E
:101D5000305402582DE9F04FA44985B0A44E002418
:101D60000368A44AD0F858800968934218BFB34268
:101D70000394019108BF0126D8F8005018BF00262F
:101D8000D8F8001046D018329B4F9C4CBB4218BF6D
:101D9000934207F130070CBF01220022A34208BF83
:101DA00042F001023034BB4208BF42F0010230373A
:101DB000A34208BF42F0010204F55C74BB4208BFB5
:101DC00042F0010207F55C77A34208BF42F001022E
:101DD0003034BB4208BF42F001023037A34208BF93
:101DE00042F001023034BB4208BF42F001023037FA
:101DF000A34208BF42F001023034BB4208BF42F0A8
:101E00000102A34208BF42F001021AB97C4A934280
:101E100040F0EF81C16D082201F01F07BA402A424D
:101E200040F0D88104464FF0040C102025FA07F248
:101E30000CFA07FCB840D20705EA0C0905EA000EC7
:101E400060D5704ADFF8B0B1DFF8B0A1934218BF97
:101E50005B450BF1300B0CBF01220022534508BF3C
:101E600042F001020AF1300A5B4508BF42F001026C
:101E70000BF1300B534508BF42F001020AF55C7AC2
:101E80005B4508BF42F001020BF55C7B534508BF80
:101E900042F001020AF1300A5B4508BF42F001023C
:101EA0000BF1300B534508BF42F001020AF1300A32
:101EB0005B4508BF42F001020BF1300B534508BFF0
:101EC00042F001020AF1300A5B4508BF42F001020C
:101ED0000BF1300B534508BF42F001025B4508BFD0
:101EE00042F0010212B9002E00F045825A69120632
:101EF00008D5012202FA07F7C8F80870626D42F0AF
:101F000002026265B9F1000F55D0002E4AD13D4A58
:101F1000DFF8E490394F4B4518BF934209F130097F
:101F20000CBF01220022BB4208BF42F00102303741
:101F30004B4508BF42F0010209F13009BB4208BF1E
:101F400042F0010207F55C774B4508BF42F0010201
:101F500009F55C79BB4208BF42F0010230374B45BE
:101F600008BF42F0010209F13009BB4208BF42F04C
:101F7000010230374B4508BF42F0010209F1300938
:101F8000BB4208BF42F0010230374B4508BF42F068
:101F90000102BB4208BF42F001021AB9184A93423B
:101FA00040F0B4811A68920705D5C8F808C0626D80
:101FB00042F004026265BEF1000F6DD0002E55D1D3
:101FC000104A0D4F0D4EBB4218BF934207F1300728
:101FD0000CBF01220022B34208BF42F0010230369A
:101FE000BB4208BF42F0010230370DE03C00002048
:101FF00010000240280002405800024070000240D9
:10200000B804024040000240B34208BF42F001025F
:1020100006F55C76BB4208BF42F0010207F55C772B
:10202000B34208BF42F001023036BB4208BF42F063
:1020300001023037B34208BF42F001023036BB42E2
:1020400008BF42F001023037B34208BF42F001023C
:102050003036BB4208BF42F00102B34208BF42F033
:1020600001021AB9A04A934240F03A811A68C2F3B9
:10207000C0028AB1C8F808001A68570300F1F78057
:102080001A68D00503D41A6822F008021A60236C7B
:1020900013B120469847E16D01F01F0120228A40CC
:1020A0002A4269D02068914B914E924DB04218BFA0
:1020B000984206F130060CBF01230023A84208BF56
:1020C00043F001033035B04208BF43F0010330361E
:1020D000A84208BF43F001033035B04208BF43F0C7
:1020E00001033036A84208BF43F0010305F55C75D3
:1020F000B04208BF43F0010306F55C76A84208BF72
:1021000043F001033035B04208BF43F001033036DD
:10211000A84208BF43F001033035B04208BF43F086
:1021200001033036A84208BF43F001033035B04206
:1021300008BF43F00103A84208BF43F001031BB9E5
:10214000694B984240F021810368C3F300139BB1AF
:10215000C8F8082094F83530042B036800F090800C
:1021600013F4802F036800F0A880190340F1B380B6
:10217000E36B0BB120469847636D002B74D0636D01
:10218000DA071FD5226804205B4984F835001368FC
:1021900023F001031360019BA1FB0331890A02E0D4
:1021A0001368DB0704D5039B01338B420393F7D9F4
:1021B00013680022DF0784F834204CBF0323012377
:1021C00084F83530E36C002B4ED0204605B0BDE8D6
:1021D000F04F18471C6864077FF524AE1C6824F094
:1021E00004041C60C8F80820426D42F001024265F8
:1021F00018E6424A424D434CAB4218BF934205F1A8
:1022000028050CBF01220022A34208BF42F00102B0
:102210002834AB4208BF42F001022835A34208BF70
:1022200042F001022834AB4208BF42F00102A3424F
:1022300008BF42F0010212B9334A934214D1C46D6F
:1022400004251A6804F01F04A5400D4268D0560703
:1022500066D51104C8F8045040F1AC80D30300F1F6
:10226000AF80836C002BB1D105B0BDE8F08F1B6847
:102270001E037FF50CAFA36C002B7FF40AAF0BE7B6
:1022800023F01603226C0360436923F0800343614B
:10229000002A41D0036823F0080303603F23002095
:1022A000012203FA01F1236DC8F8081084F8340004
:1022B00084F83520002B88D1D6E713F480737FF49F
:1022C00057AF0268012122F01002026084F8343016
:1022D00084F835104CE7636C002B7FF44BAF4BE771
:1022E0001A68C2F38002C4E6B8040240100002403B
:1022F0002800024040000240B5814E1B085402589D
:102300001C54025830540258945402581A68BEF1B2
:10231000000F3FF4C1AE53E6A36C002BBAD1BDE76A
:102320000225A5400D420CD096070AD51404C8F822
:1023300004502ED5D10338D4436C002B7FF446AF24
:1023400092E70825A5400D428ED012078CD519685A
:102350000122002521F00E0102FA04F41960C36C79
:10236000C8F80440426580F8345080F83520002BCE
:102370007FF42CAF78E71A68B9F1000F7FF4C7AD8E
:10238000BEF1000F3FF488AE18E60368C3F34003C4
:10239000DDE612F0200208D11968012421F00A01BB
:1023A000196080F8342080F83540C36B002B7FF42F
:1023B0000DAF59E7970603D41A6822F004021A6099
:1023C000036C002B7FF402AF4EE700BF406D7047F7
:1023D0000B7A0246012BF0B50AD092F835000024A2
:1023E000012826460AD04FF4006301205365F0BD52
:1023F00092F835000128D1E90064F4D192F8340054
:1024000001281AD0156E1B04C8680027D5F800C033
:1024100091F809E001382CF4813143EAC043384691
:1024200029602968C9B20B4343EA4E23234343EA98
:1024300006632B6082F83470F0BD0220F0BD00BF4F
:10244000D0E9193270B51968044611420CD0056EF6
:10245000C66C296821F4807129605A60436D43F489
:102460000073436506B1B047E36EA3B1D4E91C2104
:10247000106808420FD01868E56C20F4807018606E
:102480005160636D43F48063636525B120462B463C
:10249000BDE87040184770BD70B50446FDF780FF79
:1024A0004CF250360546012C244C0AD0D4F8103199
:1024B0005A071DD5FDF774FF401BB042F6D9032023
:1024C00070BD23695B0707D5FDF76AFF401BB0426B
:1024D000F5D823695B07F7D423691948184024D13C
:1024E000236913F480331ED04FF48033636170BDD1
:1024F000D4F81031124818400BD012490120124D67
:102500008A692B4042F000421A438A61C4F81431B0
:1025100070BDD4F8103113F4803304D04FF48033FD
:10252000C4F8143170BD184670BD06490120064A32
:1025300013408A691A438A61636170BD00200052AA
:102540000000EE15740200200000EE17F8B52A4FC7
:102550003B7D012B49D001F17843012516460C46FD
:10256000B3F5801F3D754FF0000332D30220BB61ED
:10257000FFF792FF50BB214A0225D2F80C312B43C2
:10258000C2F80C31BFF36F8FBFF34F8F33682360F6
:1025900073686360B368A360F368E36033692361C1
:1025A00073696361B369A361F369E361BFF36F8F1B
:1025B000BFF34F8F2846FFF76FFF012D0F4A16D04C
:1025C000D2F80C3123F00203C2F80C3100233B7522
:1025D000F8BD2846BB61FFF75FFF0028F6D1074A28
:1025E000D36843F00203D360CCE70220F8BDD36880
:1025F00023F00203D360E9E77402002000200052B8
:102600000F4BDA68D20706D50E490F4A59605A6057
:10261000DB68DB0711D40A4BD3F80C0110F0010082
:102620000AD00849084AC3F80411C3F80421D3F8B2
:102630000C0100F00100704770470120704700BF97
:102640000020005223016745AB89EFCD2DE9F04111
:102650000D460646FDF7A4FE334C012D8046334F50
:1026600008BF0424042C2DD0701C1BD12F4AD2F893
:10267000103124EA03035907F9D5012D2B4A2C48C0
:102680002AD0D2F81031184031D02A4C01202A4DDE
:10269000A1692B4041F000411943A161C2F81431F6
:1026A000BDE8F081D7F8103124EA03035B07E4D4D6
:1026B000FDF776FEA0EB0800B04201D8002ED1D184
:1026C0000320EDE7701C20D1184A13695907FCD488
:1026D000012D164A1648D4D11369184019D115692D
:1026E00015F480350ED04FF480335361D8E7D2F81B
:1026F000105115F4803505D04FF48033C2F81431F1
:10270000BDE8F0812846BDE8F0813B695B07CFD486
:10271000B3E7084C284608490B40A1691943A16159
:102720005361BDE8F08100BF04000080002000522A
:102730000000EE15740200200000EE172DE9F047AE
:10274000DFF840A282B09AF81430012B00F0978095
:102750004268054601240023D0070F468AF814403A
:10276000CAF8183078D490070DD502214CF25030B9
:10277000FFF76CFF38B10123002218468AF81420B5
:1027800002B0BDE8F0872B68012B7DD04FF0FF33FE
:102790003B60D5E902321A4493423AD21E0299466E
:1027A000774CDFF8E4816B68296903F00200DB07EE
:1027B00031D5E36823F4E663E360E26842F0840223
:1027C0000A433243E26068B1D4F80C3123F4E66383
:1027D000C4F80C31D4F80C3143F084030B43334379
:1027E000C4F80C3101214CF25030FFF72FFFE268A2
:1027F000034602EA0802E2606A6892071BD443BB00
:10280000D5E902321A4409F1010906F580764A45F4
:10281000C9D80023B0E70028F5D0D4F80C3123F450
:10282000E663C4F80C31D4F80C3143F084030B4355
:102830003343C4F80C3102214CF25030FFF706FF4D
:10284000D4F80C21034602EA0802C4F80C21002B3C
:10285000D6D0C7F800908FE721464CF25030FFF7F2
:10286000F5FE50B16B68990785D502214CF25030C6
:102870000194FFF7EBFE019B7EE76A6873E7022392
:10288000184602B0BDE8F0876A68286902F00301C3
:1028900002F00103032943D0002B5BD0384BD968E9
:1028A00021F03001D960D9680143D960D96841F07D
:1028B0008801D960910710D5D3F80C2122F030029D
:1028C000C3F80C21D3F80C211043C3F80C01D3F842
:1028D0000C2142F08802C3F80C2101214CF2503047
:1028E000FFF7B4FE2649031CCA6818BF012322F073
:1028F0000802CA606A6892077FF53EAF02214CF277
:1029000050300193FFF7A2FE1D490028019BD1F82A
:102910000C2118BF012322F00802C1F80C212BE77B
:102920001749CC6824F03004CC60D1F80C4124F075
:102930003004C1F80C41CC680443CC60D1F80C41A0
:102940002043C1F80C01886940F010008861002B19
:10295000C3D1D0E792077FF55CAF094AD2F80C11DA
:1029600021F03001C2F80C11D2F80C110843C2F862
:102970000C01D2F80C1141F08801C2F80C11BDE72E
:102980000020005274020020FBF8FFFF2DE9F04FF9
:102990000F6883B0002F00F0C8808C460025DFF858
:1029A0003882DFF838E20123AB4013EA070600F073
:1029B000B780DCF8041021F01009B9F1020F40F0E3
:1029C000B7804FEAD50905F0070A4FF00F0BDCF886
:1029D000102000EB89094FEA8A0AD9F820400BFA47
:1029E0000AFB02FA0AF24FEA450A24EA0B044FF006
:1029F000030B22430BFA0AFB01F00304C9F8202061
:102A00006FEA0B02D0F8009004FA0AF402EA09090E
:102A100044EA090404608468C1F3001902EA040B63
:102A2000DCF80C4009FA05F904FA0AF444EA0B044C
:102A30008460446824EA030349EA03034360C468EA
:102A4000DCF80830224003FA0AF31343C360CB00DA
:102A500066D5D8F8F44025F0030905F003030F22EA
:102A600044F0020409F1B0499B00C8F8F44009F5AC
:102A70008069D8F8F44002FA03FA04F002040194E1
:102A80004C4C019AA042D9F8082022EA0A0220D030
:102A900004F58064A04269D0474CA04261D0474C05
:102AA000A0426DD0464CA0426FD0464CA04262D0AE
:102AB000454CA0426ED0454CA04270D0444CA04240
:102AC00072D0444CA0420CBF09240A2404FA03F338
:102AD0001A43C9F80820CC03DEF800306FEA06027A
:102AE0004CBF334313408C034FF0B044CEF800305A
:102AF000DEF804304CBF33431340CEF80430236873
:102B0000CC024FF0B0444CBF3343134089022360E2
:102B1000636854BF02EA03061E434FF0B0435E6091
:102B2000013537FA05F37FF43EAF03B0BDE8F08F0F
:102B30004FEA450A0322D0F800B009F1FF3901EA53
:102B4000020402FA0AF2B9F1010F6FEA020204FA72
:102B50000AF402EA0B0B44EA0B0404603FF66FAF81
:102B600059E7022404FA03F31A43B2E7012404FAF2
:102B700003F31A43ADE7052404FA03F31A43A8E765
:102B8000032404FA03F31A43A3E7042404FA03F327
:102B90001A439EE7062404FA03F31A4399E707242D
:102BA00004FA03F31A4394E7082404FA03F31A43DC
:102BB0008FE700BF0000025800080258000C0258BE
:102BC000001002580014025800180258001C025845
:102BD0000020025800240258004402588000005887
:102BE0000369194214BF01200020704702B909048B
:102BF0008161704700285BD0826800230221D207E0
:102C000010B580F8C11082B0C0E93133C0E9333368
:102C1000C0E935330FD501682D4B99424AD00A6877
:102C20000469436922F4704204F4404403F44053BD
:102C3000224313430B60044604F098F9A3689B07F2
:102C400008D52168E3680A6803F4407322F44072EF
:102C500013430B6000230122184684F8C12084F836
:102C6000C030A362C4E90633C4E90833C4E90C33B5
:102C7000C4E90E33C4E91033C4E91333C4E915338E
:102C8000C4E91733C4E91A33C4E91C33C4E91E3359
:102C9000C4E92133C4E92333C4E92533C4E9283323
:102CA000C4E92A33C4E92C33C4F8BC3002B010BDE7
:102CB00001207047074BD3F8F02042F00052C3F8D0
:102CC000F020D3F8F03003F000530193019BA6E706
:102CD000007401400044025890F8C130DBB2022B6E
:102CE0002CD002230529F0B49768D668046880F8D0
:102CF000C130D2E9005216D004EBC111D1F88030B6
:102D000023F007033B4323F018033343C1F880301B
:102D1000C1F89450C1F898200122002380F8C12006
:102D20001846F0BC7047236823F007033B4323F0A9
:102D30001803334323606561A261EDE718467047CD
:102D4000F0B5044690F8C100C0B2022822D094F831
:102D5000C000012800F08E8001250220102A84F88E
:102D6000C05084F8C10029D015D9802A06D021D9B5
:102D7000B2F5807F22D0B2F5007F13D120681026F3
:102D80001D6800EBC110C0F8A45094F8C1000728DA
:102D90001FD10120F0BD8242F0D05CD9042A0DD0B1
:102DA000082AEBD000200725064684F8C00084F8E6
:102DB000C1500AE0202AE1D0402AF3D12068082639
:102DC0001D6800EBC110C0F89C5094F8C1000728A2
:102DD000DFD0CF012168D3F804C0102A01EB07052A
:102DE00098680CF0020300F00800D5F8E4C0D5F8AC
:102DF000B85035D01DD9802A22D03DD8202A1FD0E6
:102E0000402A2DD06FF0FE0202EA0C02034339443F
:102E1000012513430022C1F8E4301046D1F8803078
:102E200043F00063C1F8803084F8C15084F8C020BA
:102E3000F0BD022A04D011D9042A11D0082AE1D108
:102E4000CA1904251B04C2F8C4600004C2F8C850A3
:102E50006FF47E02D8E7AA42A4D1AFE7012AD1D10C
:102E6000CD194FF0040E6FF0FE02C5F8BC60C5F836
:102E7000C0E0C9E70220F0BDB2F5807FF0D0B2F526
:102E8000007FBFD1DCE700BF70B504460D46164693
:102E90006A1C23682CD19A69900727D49A69D106B5
:102EA000F9D59A699106FCD520221021D961DA6101
:102EB0009A69900701D500229A629A69D10703D4D2
:102EC0009A6942F001029A615A6800211B4E20253E
:102ED000012032405A60636C84F8401043F00403D0
:102EE000636484F8415084F8421070BD002070BDC6
:102EF0009A699207FAD49A69D0061BD4FDF750FA62
:102F0000801BA84201D8002DC2D1636C2021002271
:102F100001200B4384F84020636484F8411084F856
:102F2000422070BDFDF73CFA801B8542EDD3002D99
:102F3000EBD023689A699206F4D5B5E700E800FE65
:102F400070B504460D46164623689A69920649D420
:102F50009A69D20626D5681C38D19A699106FCD5A3
:102F600020221021D961DA619A69900701D50022E7
:102F70009A629A69D10703D49A6942F001029A6170
:102F80005A680021184E2025012032405A60636C97
:102F900084F8401043F00403636484F8415084F8DB
:102FA000421070BDFDF7FCF9801BA84201D8002D2E
:102FB000CAD1636C2021002201200B4384F84020F9
:102FC000636484F8411084F8422070BD9A699206C7
:102FD000C6D4FDF7E5F9801B8542EAD3002DE8D081
:102FE0002368B8E7002070BD00E800FE00284DD03F
:102FF000F8B590F84130044603F0FF02002B40D0B2
:103000002421E568D4E9003284F84110012D1868C4
:1030100022F07061A26820F00100186019619968BF
:1030200021F40041996028D042F40442022D9A60B4
:1030300002D14FF400625A605A68002114482027D8
:10304000A6691043D4E9042558602A43D868E56985
:1030500042EA0622266A20F400403543D86008463A
:10306000DA601D601A6842F001021A60616484F837
:103070004170216384F84210F8BD42F400429A6026
:10308000DAE780F8402004F005F8B9E7012070473E
:10309000008000022DE9F84390F84140089E202C62
:1030A0006FD190F84040012C6BD098460123914697
:1030B0000F4680F840300446FDF772F9054604E0FB
:1030C000FDF76EF9401B192875D82368986910F42C
:1030D0000040F5D110222121C4F82490C7F309073C
:1030E00084F8411084F842206064A4F82A80628D3C
:1030F0006063FF2A48D8618D484A89B258683A43CC
:10310000DFF824E15FFA81FC218500EA0E0142EA42
:103110000C420A435A60DFF81481DFF8149147EA41
:103120000808638D2A46314620469BB2002B62D0A8
:10313000FFF7AAFE00285BD1606A216810F8012B16
:10314000238D8A62628D013B6062013A9BB292B22A
:1031500023856285628D92B2002AE2D0002BE0D1F5
:10316000701C1DD18B691A06FCD5638DFF2B30D9DD
:103170004B68FF2203EA0903228543EA08034B60F8
:10318000CFE70220BDE8F8835A68FF20DFF898C037
:10319000234902EA0C02208539430A435A60BAE700
:1031A0008B691B06E1D4FDF7FBF8401B864202D376
:1031B0000EB12168D4E7636C2021002201200B436B
:1031C00084F84020636484F8411084F84220BDE80C
:1031D000F883628D47F00073486892B200EA0900F4
:1031E0005FFA82FC228543EA0C4303434B6098E775
:1031F0000120BDE8F883FFF7A3FE0028F8D123687B
:103200002021084DD9615A682A405A6084F841103B
:1032100084F8400084F84200B4E700BF0020008238
:103220000020FF8100E800FE009800FC0000FF0184
:10323000009C00FC90F84130DBB2202B70B41FD111
:1032400090F84020012A1BD002682424002680F830
:1032500041401568344625F001051560156825F4D0
:1032600080551560156829431160116841F001010E
:10327000116080F8406080F84130204670BC704793
:103280000224204670BC704790F84130DBB2202BFE
:1032900070B41ED190F84020012A1AD0026824246C
:1032A000002680F841401468354624F0010414607B
:1032B000146824F4706444EA01211160116841F03B
:1032C0000101116080F8406080F84130284670BCF0
:1032D00070470225284670BC704700BF38B5114BB7
:1032E000DA68520706D4DB6803F00703181A18BF20
:1032F000012038BDDA681C4622F007021043D8606E
:10330000FDF74EF8054605E0FDF74AF8401BB0F51D
:103310007A7F04D863689B04F6D5002038BD01206D
:1033200038BD00BF00480258002800F08F81F8B572
:1033300003680446D90733D5B1490A69896A02F09E
:103340003802102A00F00781182A00F0FF80636815
:10335000B3F5803F10D0002B00F06181B3F5A02FB2
:10336000A74B1A6800F0D18122F480321A601A68E3
:1033700022F480221A6004E0A14A136843F48033E7
:103380001360FDF70DF89E4D064605E0FDF708F8C1
:10339000801B642800F241812B689F03F6D52368C7
:1033A000990700F18A80D90630D5954A1369926A47
:1033B00003F03803082B00F0DE80182B00F0D680D5
:1033C000E369002B00F06A818D4B1A681D4642F0BC
:1033D00080021A60FCF7E4FF064605E0FCF7E0FF18
:1033E000801B022800F219812B68DB05F6D5FCF75B
:1033F000EFFF41F20303984200F241826B68226AB8
:1034000023F0F84343EA82636B6023681D0717D5F6
:103410006369002B00F01C81794B5A6F1D4642F006
:1034200001025A67FCF7BCFF064605E0FCF7B8FF4F
:10343000801B022800F2F1806B6F9807F6D5236895
:103440009A0617D5A369002B00F015816C4B1A68FA
:103450001D4642F480521A60FCF7A2FF064605E0C2
:10346000FCF79EFF801B022800F2D7802B689F0488
:10347000F6D52368590700F19680606AD8B1604B91
:103480001A6902F03802182A00F0B18102281A687D
:1034900000F0438122F080721C461A60FCF780FF26
:1034A000054605E0FCF77CFF401B022800F2B580D2
:1034B00023689B01F6D40020F8BD514A1369926A33
:1034C00013F038032BD0182B27D0E268002A00F025
:1034D000F9804B490B680D4623F0190313430B6029
:1034E000FCF75EFF064605E0FCF75AFF801B02284A
:1034F00000F293802B685F07F6D5FCF769FF41F275
:103500000303226998426B6800F2C28123F47C3382
:1035100043EA02336B60236845E79207D5D1384B05
:103520001B685B0701D5E368F3B1FCF751FF41F27B
:103530000303334A98422169536800F2D78023F489
:103540007C3343EA0133536023682CE701F0030125
:1035500002297FF4FCAE2A4A126892037FF520AF5D
:103560006268002A7FF41CAF0120F8BD02F003025C
:10357000012A7FF425AF224B1B68DA0502D5E369E7
:10358000802BF1D1FCF724FF41F203031C4A98423F
:10359000216A00F2B280536823F0F84343EA816362
:1035A0005360236832E7174B1A681D4642F4807255
:1035B0001A60FCF7F5FE064604E0FCF7F1FE801BFE
:1035C00064282AD82B68DA05F7D5A368012B00F008
:1035D0006681002B00F03981052B094B1A6F00F032
:1035E000648122F001021A671A6F22F004021A673E
:1035F000FCF7D6FE024D074641F2883609E000BFCF
:103600000044025800480258FCF7CAFEC01BB042F2
:1036100003D82B6F9B07F7D52FE70320F8BDA74BE7
:103620001A681D4622F480321A601A6822F4802239
:103630001A60FCF7B5FE064604E0FCF7B1FE801BFD
:103640006428EAD82B689803F7D4A8E601207047CD
:103650009A4B5A6F1D4622F001025A67FCF7A0FEF2
:10366000064604E0FCF79CFE801B0228D5D86B6F51
:103670009907F7D4E3E6914B1A681D4622F480526D
:103680001A60FCF78DFE064604E0FCF789FE801BFD
:103690000228C2D82B689804F7D4EAE6874B1A6848
:1036A0001D4622F080021A60FCF77AFE064604E00E
:1036B000FCF776FE801B0228AFD82B68DF05F7D415
:1036C0002368A3E67D4B1A681D4622F001021A60AA
:1036D000FCF766FE064604E0FCF762FE801B02284B
:1036E0009BD82B685807F7D423685CE623F0FE4389
:1036F00043EA01635360236855E6D36823F07C53A3
:1037000043EA0163D360236880E642F480221A60B2
:103710001A6842F480321A6033E622F080721D4645
:103720001A60FCF73DFE064605E0FCF739FE801BFB
:1037300002283FF672AF2B689901F6D4AA6A604B53
:10374000A06A1340E26A5F4903435C4E43EA0213F6
:10375000AB62276BD4E90D32013F501E013BE26B97
:10376000C7F308075B020004013A9BB200F4FE00B5
:103770001206034302F0FE423B4313432B63EB6A02
:1037800023F00103EB626A6BA36C114041EAC301B1
:103790006963EB6A226C23F00C031343EB62EB6A60
:1037A000626C23F002031343EB62EB6A43F4803351
:1037B000EB62EB6A43F40033EB62EB6A43F4802381
:1037C000EB62EB6A43F00103EB622B6843F080731A
:1037D0002B60FCF7E5FD044605E0FCF7E1FD001B6E
:1037E00002283FF61AAF33689A01F6D563E601283E
:1037F0009A6A1D6B3FF460AE02F00303A16A8B422C
:103800007FF4B2AEC2F30512E36A9A427FF4ACAE23
:10381000236BC5F30802013B9A427FF4A5AE636BAC
:10382000C5F34622013B9A427FF49EAEA36BC5F3DB
:103830000642013B9A427FF497AEE06BC5F3066502
:103840000138281A18BF012036E61C4B41F2883790
:103850001A6F1D4622F001021A671A6F22F0040245
:103860001A67FCF79DFD064605E0FCF799FD801BF5
:10387000B8423FF6D2AE2B6F9807F6D4FDE5EB6861
:10388000226A23F07C5343EA0263EB602368BDE5C0
:1038900023F0FE4343EA02636B60236883E5074A33
:1038A000136F43F001031367A2E642F004021A67A4
:1038B0001A6F42F001021A679AE600BF00440258EC
:1038C0000CFCFFFF0700FFFF3E4A136903F03803BB
:1038D000102B4FD0182B0BD00BB13B4870471368FF
:1038E000990649D513683948C3F3C103D8407047D6
:1038F000916A906AD36AC0F3051010B4546BB0B3E8
:10390000C4F3CC0403F0010301F0030107EE900AB5
:1039100003FB04F30129F8EEE77A07EE103ABAEE5A
:10392000E97A02D02DD3022928D0DFED295AC5EE3D
:10393000A76A136BC3F3080307EE903AB7EE006A69
:10394000F8EEE77A37EE877A37EE067A27EE267AB0
:103950001C4B1B6BC3F34623013307EE903AF8EE82
:10396000E76AC7EE267AFCEEE77A17EE900A5DF872
:10397000044B70471748704714487047DFED165ADC
:10398000D5E713689B061AD51068B7EE005A0F49A1
:10399000C0F3C100136BC140C3F3080306EE901AD5
:1039A000F8EEE65A06EE903AB8EEE66AC5EEA76A79
:1039B00036EE077A37EE057A26EE877AC8E7DFED2E
:1039C000075AB4E70044025800093D000090D003B4
:1039D0000024744A40787D0120BCBE4B0024744C06
:1039E00078B1894A136803F00F038B420BD2136836
:1039F00023F00F030B431360136803F00F038B4294
:103A000001D00120704703682DE9F0415D070BD517
:103A10007E4C0569A26902F07002954204D9A26940
:103A200022F070022A43A2611C070BD5774C45692E
:103A3000E26902F07002954204D9E26922F0700254
:103A40002A43E261DA060BD5704C8569E26902F41B
:103A5000E062954204D9E26922F4E0622A43E2611D
:103A60009F060BD5694CC569226A02F07002954227
:103A700004D9226A22F070022A4322629E07044679
:103A80000D4603F001025DD5604EC068B16901F0DA
:103A90000F01884204D9B16921F00F010143B161DE
:103AA000002A31D0594AA168936923F470630B430B
:103AB000936163681268022B00F09880032B00F07A
:103AC0009B80012B00F09C80570738D54F4941F26D
:103AD00088380A690E4622F0070213430B61FCF78F
:103AE0005FFC074605E0FCF75BFCC01B404500F2AD
:103AF00081803369626803F03803B3EBC20FF2D1FF
:103B000023689E070BD5E06840498A6902F00F02DE
:103B1000824204D98A6922F00F02104388613A492F
:103B20000A6802F00F02AA4214D90A6822F00F02B2
:103B30002A430A600A6802F00F02AA420AD0012052
:103B4000BDE8F081002AADD12F490A6802F00F02CA
:103B5000AA42EAD858070BD52C4920698A6902F095
:103B60007002904204D28A6922F0700202438A6194
:103B700019070BD525496069CA6902F070029042A5
:103B800004D2CA6922F070020243CA61DA060BD578
:103B90001E49A069CA6902F4E062904204D2CA696F
:103BA00022F4E0620243CA619B060BD5174AE16921
:103BB000136A03F07003994204D2136A23F070036E
:103BC0000B431362FFF780FE104B114C9B691149A8
:103BD000C3F30323104AE35C03F01F0320FA03F34B
:103BE0000868BDE8F0411360FCF77ABB90033FF52D
:103BF0006DAFA4E70320A3E791013FF567AF9EE710
:103C0000D2053FF563AF9AE7002000520044025806
:103C100068C80008040000203C00002008B501F03E
:103C20002FF9064B06499B69064A03F00F03CB5C4C
:103C300003F01F03D840106008BD00BF00440258C5
:103C400068C80008400000203B4AF8B5936A03F0BA
:103C50000303032B67D013680F460546144623F071
:103C600080631360FCF79CFB064604E0FCF798FBBE
:103C7000801B022859D823681A01F7D4A36A2A683E
:103C800023F47C332D4943EA0233A3626E68D5E9FD
:103C90000232013E501E013B2A69C6F308065B0250
:103CA0000004013A9BB200F4FE001206034302F046
:103CB000FE4233431343A363E36A6A6923F0C003FC
:103CC0001343E362E36AAA6923F020031343E36228
:103CD000E36A23F01003E362E26BEB69114041EA0F
:103CE000C301E163E36A43F01003E362E36AF7B1FF
:103CF000012F0CBF43F4801343F40013E3620E4B17
:103D00001A681C4642F080621A60FCF749FB0546BF
:103D100004E0FCF745FB401B022806D823681B0182
:103D2000F7D50020F8BD0120F8BD0320F8BD43F40D
:103D30000023E362E3E700BF004402580700FFFFEF
:103D40003B4AF8B5936A03F00303032B67D013686B
:103D50000F460546144623F080531360FCF720FB02
:103D6000064604E0FCF71CFB801B022859D8236898
:103D70009A00F7D4A36A2A6823F07C732D4943EA9A
:103D80000253A3626E68D5E90232013E501E013B28
:103D90002A69C6F308065B020004013A9BB200F4EC
:103DA000FE001206034302F0FE4233431343236432
:103DB000E36A6A6923F440631343E362E36AAA692E
:103DC00023F400731343E362E36A23F48073E36232
:103DD000626CEB69114041EAC3016164E36A43F438
:103DE0008073E362E36AF7B1012F0CBF43F4000371
:103DF00043F08073E3620E4B1A681C4642F0805217
:103E00001A60FCF7CDFA054604E0FCF7C9FA401B3E
:103E1000022806D823689B00F7D50020F8BD0120B2
:103E2000F8BD0320F8BD43F48003E362E3E700BF7D
:103E3000004402580700FFFF2DE9F84303680446D9
:103E400013F0006615D0426EB2F5801F00F0428478
:103E500040F2F384B2F5001F00F05584B2F5401F24
:103E600040F00485A2480026016D21F440110A4368
:103E70000265DD050AD5626D042A06D8DFE812F076
:103E8000D203D903C703930393030126354698054C
:103E90001BD5A26D802A00F0F58300F2C384002AAE
:103EA00000F03784402A40F0C4840021201DFFF731
:103EB000CBFE23680546002D40F0EE838C49A06DB3
:103EC0000A6D22F4E07202430A6559051FD5D4F841
:103ED000A420B2F5800F00F0C98300F28B84002A81
:103EE00000F00484B2F5001F40F08C840021201DF6
:103EF000FFF7AAFE23680546002D40F0C1837C49E8
:103F0000D4F8A4008A6D22F4600202438A651A057F
:103F10001FD5D4F8A820B2F1007F00F0C38300F2CF
:103F20007584002A00F0FC83B2F1807F40F0768433
:103F30000021201DFFF788FE23680546002D40F074
:103F4000BB836B49D4F8A8008A6D22F0E06202437B
:103F50008A659F010DD5A26C102A00F0018340F202
:103F60008084202A00F03E83302A00F0FE82012661
:103F70003546D8041DD5E26DB2F5005F00F09E8392
:103F800000F26384002A00F0B883B2F5805F40F04D
:103F900064840021201DFFF757FE23680546002D8D
:103FA00040F096835249E06D0A6D22F4E0420243EC
:103FB0000A6599041BD5226EB2F5003F00F0FE821F
:103FC00000F2FA834AB1B2F5803F40F0018401214A
:103FD000201DFFF739FE23680546002D40F066825C
:103FE0004349206E0A6D22F4E02202430A655A0416
:103FF0001DD5D4F8AC20B2F1005F00F0A78200F22A
:10400000EA834AB1B2F1805F40F0F1830121201DC3
:10401000FFF71AFE23680546002D40F0458234491B
:10402000D4F8AC008A6D22F0E04202438A651F0496
:104030000DD5E26EB2F1805F00F0CB82B2F1005F8D
:1040400000F0A381002A00F0A68101263546D801A0
:1040500019D5626C032A00F23484DFE812F00A00FA
:10406000590204000A000221201DFFF7EDFD23681C
:104070000546002D40F010821D49606CCA6C22F08C
:1040800003020243CA64590200F1C081DF0742D52E
:10409000A26F282A00F25C83DFE812F033005A0393
:1040A0005A035A035A035A035A035A034B025A0338
:1040B0005A035A035A035A035A035A032C005A0349
:1040C0005A035A035A035A035A035A0333005A0332
:1040D0005A035A035A035A035A035A0333005A0322
:1040E0005A035A035A035A035A035A03330000BFB0
:1040F00000440258012104F12400FFF721FE236847
:104100000546002D40F0C681B149A06F4A6D22F0EE
:10411000380202434A6598071CD5626F052A00F2EF
:10412000CA83DFE812F00D00EC0106000D000D005F
:104130000D00012104F12400FFF702FE236805466B
:10414000002D40F0AB81A249606F4A6D22F007025A
:1041500002434A6559071ED5D4F89020052A00F27B
:10416000AD83DFE812F00D00DD0106000D000D004B
:104170000D00012104F12400FFF7E2FD236805464C
:10418000002D40F08D819249D4F890008A6D22F084
:10419000070202438A659A061DD5D4F88C20B2F135
:1041A000005F00F0EC8100F2DA824AB1B2F1805F88
:1041B00040F0E1820021201DFFF746FD23680546FF
:1041C000002D40F06F818249D4F88C004A6D22F0B6
:1041D000E04202434A655F061DD5D4F89820B2F547
:1041E000006F00F0D68100F2C9824AB1B2F5806F4B
:1041F00040F0D0820021201DFFF726FD23680546F0
:10420000002D40F057817249D4F898008A6D22F44D
:10421000E05202438A6518061DD5D4F89C20B2F5F9
:10422000804F00F0E98100F2B8824AB1B2F5005F38
:1042300040F0BF820021201DFFF706FD23680546E0
:10424000002D40F039816249D4F89C008A6D22F437
:10425000604202438A6519070BD5D4F88010B1F586
:10426000805F00F0ED815A48426D22F440520A43CB
:104270004265DA060BD5D4F89410B1F5807F00F0D2
:10428000EA815348826D22F440720A4382651F031B
:104290000ED5D4F8A010B1F5803F00F08780B1F5BD
:1042A000003F00F08A80002900F040820126354658
:1042B00058030FD5D4F88420B2F5001F00F08A808F
:1042C000B2F5401F00F08D80B2F5801F00F03782FC
:1042D00001263546D90317D5E26C002A00F0058186
:1042E000B2F5803F40F0EC800221201DFFF7ACFCCE
:1042F00005462368002D40F000813549E06CCA6C0A
:1043000022F480320243CA649A0075D49F032BD4EE
:10431000301C18BF0120DD0206D52D49256F0A6D1E
:1043200022F000422A430A65990206D52849A56E63
:104330000A6D22F080722A430A655A0009D5244A80
:10434000116921F4004111611169D4F8B850294371
:104350001161002B06DA1E4A216DD36C23F0405305
:104360000B43D364BDE8F883E26FB2F5807F00F0C1
:10437000AA8040F2E780B2F5007F00F0A980B2F594
:10438000407F00F0A5800120C5E70121201DFFF737
:104390005BFC23680546002D40F08A800C49E06EE6
:1043A0000A6D22F0405202430A6550E6022104F1F0
:1043B0002400FFF7C5FC23680546002D7ED1044983
:1043C000D4F8A0008A6D22F4403202438A656FE778
:1043D00000440258012104F12400FFF7B1FC2368D6
:1043E0000546002D54D1AD49D4F884004A6D22F41D
:1043F000401202434A656DE7022104F12400FFF7F1
:104400009FFC2368002881D001267FE7A44B1A680F
:104410001F4642F480721A60FBF7C2FF804606E036
:10442000FBF7BEFFA0EB0800642800F294813B6814
:10443000DA05F5D5002D40F03A82984AD4F8B0302C
:10444000116F594011F4407F0BD0116F106F21F4A0
:10445000407140F480301067106F20F48030106796
:104460001167B3F5807F00F0048203F44072B2F567
:10447000407F00F0128289490A6922F47C520A6165
:10448000864AC3F30B03116F0B4313672368FDE5E3
:104490002E461FE72E463EE62E46F4E52E4659E60A
:1044A0002E4678E62E4696E62E46C0E52E469EE53A
:1044B0002E46CCE52E46AEE62E46CCE62E46F7E658
:1044C0000126354620E77548C16A41F40031C162D2
:1044D000002D7FF458AF714D301C696D18BF01205D
:1044E00021F440710A436A6515E76C49CA6A42F4CF
:1044F0000032CA62002D3FF400AF2E4604E70121CE
:10450000201DFFF7A1FB05462368002DC6D11AE642
:104510006249CA6A42F40032CA62002DBCD1ABE5DE
:104520000121201DFFF790FB05462368002DB7D120
:1045300029E60121201DFFF787FB05462368002D92
:10454000A8D1E1E5002A7FF41EAFC1E7012104F103
:104550002400FFF7F5FB05462368002DA4D15EE596
:104560004E49CA6A42F40032CA62002D42D14B4918
:10457000A06CCA6C22F030020243CA64F9E4022142
:1045800004F12400FFF7DCFB05462368002D89D1E8
:1045900019E6022104F12400FFF7D2FB0546236847
:1045A000002D87D12FE63546002D39D13B49606D6E
:1045B0000A6D22F0070202430A6568E4012104F152
:1045C0002400FFF7BDFB05462368002D7FF46EAF86
:1045D00006E53249CA6A42F40032CA62002D7FF40D
:1045E00067AFDBE60221201DFFF72EFB054623689F
:1045F000002DBCD02E46BCE4022104F12400FFF7BC
:104600009FFB05462368002D7FF456AF1BE6002173
:1046100004F12400FFF794FB05462368002DC5D064
:104620002E4634E41D493546CA6A42F40032CA6255
:10463000BAE70021201DFFF707FB23680546B3E713
:10464000022104F12400FFF77BFBD4F8801000B1B5
:104650000126236807E6022104F12400FFF770FB1E
:10466000D4F8941000B1012623680AE6002104F171
:104670002400FFF765FB05462368002D3FF43FAC9F
:104680002E4644E4002104F12400FFF759FB0546BF
:104690002368002D3FF412AC2E4616E40044025865
:1046A00000480258002104F12400FFF749FB0546A9
:1046B0002368002D3FF445AC2E464AE4002104F166
:1046C0002400FFF73DFB05462368002D3FF46AAC4C
:1046D0002E466EE402210430FFF7B6FA0646236840
:1046E000002E7FF4C6AB626EFFF7BCBB7749CA6A87
:1046F00042F40032CA62FFF7FFBB7449CA6A42F44F
:104700000032CA624BE402212430FFF719FB06464F
:10471000E5E76E49CA6A42F40032CA62FFF7CBBBD2
:104720006A49CA6A42F40032CA6207E4201DFFF7F0
:104730008BFA05462368002D7FF4C0AE3FE663493F
:10474000CA6A42F40032CA62002D7FF4A1AE4AE682
:1047500001263546DFE403262368354696E4B2F1A8
:10476000804F3FF42DADB2F1A04F3FF429ADB2F12F
:10477000405F3FF425AD012635462CE5B2F5805F5C
:104780003FF43EADB2F5A05F3FF43AADB2F5406FF5
:104790003FF436AD012635463DE5B2F5004F3FF416
:1047A0004FADB2F5204F3FF44BADB2F5C04F3FF4E3
:1047B00047AD012635464EE5B2F5802F3FF40DACEE
:1047C000B2F5A02F3FF409ACB2F5403F3FF405AC81
:1047D000012635460BE4B2F1804F3FF41DACB2F137
:1047E000A04F3FF419ACB2F1405F3FF415AC012685
:1047F00035461CE4B2F5C00F3FF47EABB2F5000FB6
:104800003FF47AAB01263546FFF781BBB2F1407F1A
:104810003FF494ABB2F1806F3FF490AB0126354684
:10482000FFF797BBC02A3FF446ABB2F5807F3FF459
:1048300042AB01263546FFF748BBBAB92348C16AE7
:1048400041F40031C162FFF70DBBB2F5405F3FF4A8
:10485000A6ABB2F5804F3FF4A2AB01263546FFF779
:10486000A8BB002A3FF481AEFFF781BB0126FFF70A
:1048700000BBFBF795FD154F814641F2883806E0F5
:10488000FBF78EFDA0EB090040453FF664AF3B6FA0
:104890009B07F5D5D4F8B030E7E50C480C4A016920
:1048A00002EA131221F47C510A430261E8E523680D
:1048B0002E46FFF7EBBB012635464BE40126354675
:1048C00069E401263546FFF7DEBB00BF004402580D
:1048D000CFFFFF00464A30B4946A936AD16AC3F3AB
:1048E0000533D56B002B59D0C5F3CC05C1F30011AE
:1048F00004F0030407EE903A01FB05F1012CF8EEF9
:10490000E77A06EE901AFAEEE96A02D04ED3022C4C
:1049100049D09FED387A87EE276A936BC3F308037B
:1049200007EE903AF7EE005AB8EEE77A77EE267A7D
:1049300077EEA57A67EE867A2D4AB7EE006A936B1A
:10494000C3F3462306EE903AF8EEE66A30BC76EE04
:10495000866A87EEA67ABCEEC77A80ED007A936B02
:10496000C3F3064306EE903AF8EEE66A76EE866A00
:1049700087EEA67ABCEEC77A80ED017A936BC3F31B
:10498000066307EE103AB8EEC77A37EE067AC7EE3E
:10499000876AFCEEE66AC0ED026A7047C0E9003340
:1049A000836030BC70479FED147AB4E713689B06B0
:1049B0001AD51468B7EE005A1049C4F3C104936BBA
:1049C000E140C3F3080307EE101AF8EEC75A07EEEA
:1049D000103AB8EEC76A85EEA77A76EE267A77EEB9
:1049E000857A67EE277AA7E79FED057A93E700BF00
:1049F000004402580024744A20BCBE4B0090D003EF
:104A00000024744C464A30B4946A936AD16AC3F362
:104A10000553556C002B59D0C5F3CC05C1F30021CB
:104A200004F0030407EE903A01FB05F1012CF8EEC7
:104A3000E77A06EE901AFAEEE96A02D04ED3022C1B
:104A400049D09FED387A87EE276A136CC3F30803C9
:104A500007EE903AF7EE005AB8EEE77A77EE267A4C
:104A600077EEA57A67EE867A2D4AB7EE006A136C68
:104A7000C3F3462306EE903AF8EEE66A30BC76EED3
:104A8000866A87EEA67ABCEEC77A80ED007A136C50
:104A9000C3F3064306EE903AF8EEE66A76EE866ACF
:104AA00087EEA67ABCEEC77A80ED017A136CC3F369
:104AB000066307EE103AB8EEC77A37EE067AC7EE0D
:104AC000876AFCEEE66AC0ED026A7047C0E900330F
:104AD000836030BC70479FED147AB4E713689B067F
:104AE0001AD51468B7EE005A1049C4F3C104136C08
:104AF000E140C3F3080307EE101AF8EEC75A07EEB9
:104B0000103AB8EEC76A85EEA77A76EE267A77EE87
:104B1000857A67EE277AA7E79FED057A93E700BFCE
:104B2000004402580024744A20BCBE4B0090D003BD
:104B30000024744C464A30B4946A936AD16AC3F331
:104B40000513556B002B59D0C5F3CC0501F00101BD
:104B500004F0030407EE903A01FB05F1012CF8EE96
:104B6000E77A06EE901AFAEEE96A02D04ED3022CEA
:104B700049D09FED387A87EE276A136BC3F3080399
:104B800007EE903AF7EE005AB8EEE77A77EE267A1B
:104B900077EEA57A67EE867A2D4AB7EE006A136B38
:104BA000C3F3462306EE903AF8EEE66A30BC76EEA2
:104BB000866A87EEA67ABCEEC77A80ED007A136B20
:104BC000C3F3064306EE903AF8EEE66A76EE866A9E
:104BD00087EEA67ABCEEC77A80ED017A136BC3F339
:104BE000066307EE103AB8EEC77A37EE067AC7EEDC
:104BF000876AFCEEE66AC0ED026A7047C0E90033DE
:104C0000836030BC70479FED147AB4E713689B064D
:104C10001AD51468B7EE005A1049C4F3C104136BD7
:104C2000E140C3F3080307EE101AF8EEC75A07EE87
:104C3000103AB8EEC76A85EEA77A76EE267A77EE56
:104C4000857A67EE277AA7E79FED057A93E700BF9D
:104C5000004402580024744A20BCBE4B0090D0038C
:104C60000024744CB0F5807F00B585B02DD0B0F530
:104C7000007F18D0B0F5806F4ED0B0F5006F37D000
:104C8000B0F5805F00F08B80B0F5002F00F0AC80B5
:104C9000B0F5803F00F0B680B0F5804F62D00020C4
:104CA00005B05DF804FB704A136D03F4E073802BCC
:104CB00043D06AD8002B39D0402BF0D101A8FFF7A0
:104CC00009FE019805B05DF804FB674B1B6D03F00E
:104CD0000703042BE3D801A252F823F02D4D00085E
:104CE000BD4C00083B4D0008114D0008494D00081F
:104CF0005D4A936D03F0E063B3F1007F1DD05CD893
:104D0000A3B1B3F1807FD9D0C9E7B3F5C00F5BD1B0
:104D1000564805B05DF804FB534A936D03F46003F5
:104D2000B3F5800F09D0F0D8002B51D101A8FFF7BF
:104D300001FF029805B05DF804FB01A8FFF762FED1
:104D4000019805B05DF804FB474BDB6C13F0405352
:104D500019D0B3F1805F62D0B3F1005F444818BF4F
:104D600000209DE7404B9B6D03F0E043B3F1005FF3
:104D700068D05BD9B3F1804F51D0B3F1A04F5FD071
:104D8000B3F1405F8BD13B488AE7C02BC0D0B3F56D
:104D9000807F84D1D36C13F04053DAD1F3E7324AE9
:104DA000136D03F4E043B3F5005FC6D015D8002BB4
:104DB000BCD0B3F5805F81D071E7B3F1407FA7D05D
:104DC000B3F1806FE6D06AE7B3F5000FE2D066E793
:104DD000B3F5001F3FF472AF61E7B3F5405F97D0C2
:104DE000B3F5804FD6D05AE71F4A936D03F4403392
:104DF000B3F5803F15D0B3F5003FCBD0002B7FF447
:104E00004EAF5BE7184BDB6C13F480338ED0002B76
:104E10003FF445AF01A8FFF75DFD039840E7164852
:104E20003EE701A8FFF7EEFD039839E77BB1B3F148
:104E3000805F7FF434AF01A8FFF74CFD02982FE7A5
:104E40000B482DE701A8FFF7DDFD029828E7FEF7E4
:104E5000E5FE054B094A1B6AC3F30213D35C03F05A
:104E60001F03D8401CE700BF004402580080BB006D
:104E700040787D010090D00300093D0068C800081B
:104E800008B5FEF721FD064B06499B69064AC3F3A8
:104E90000323CB5C03F01F03D840106008BD00BFA4
:104EA0000044025868C800083C00002080B338B5B0
:104EB000437A044603F0FF0233B30222D4E90031FF
:104EC00062721A6822F020020A431A601A6842F0DD
:104ED00004021A605B685B0603D504230120637239
:104EE00038BDFBF75DFA054604E0FBF759FA401BB5
:104EF00002280FD823685B6813F00403F5D1012260
:104F000018466272E36038BD027202F0BBFBD4E760
:104F1000012070470422022301206272E36038BD41
:104F2000F8B5037A012B0BD0044601200E46637AB4
:104F30002072834206D00423E36000232372F8BD6D
:104F40000220F8BD02236372FBF72AFA074604E049
:104F5000FBF726FAC01B02280BD82268556815F00B
:104F60000105F5D09368012200202361336062724D
:104F7000E3E70120022325726072E360F8BD00BF01
:104F80002DE9F041042913D8DFE801F03636361553
:104F90001500894B9A4205D003F1C053A3F5823323
:104FA0009A4205D16368012B02D1636C002B54D067
:104FB0000120BDE8F081456800244FF40036036706
:104FC00035F002054FF4802544640CBF01272746C5
:104FD00004294FF6FF71076514BF0D270127C4642C
:104FE000C465876584664167C0E91865032ADFD810
:104FF000DFE802F0918B982545680024036735F0BF
:1050000002054464C4644FF4803508BF26468466B4
:105010004FF6FF7418BF0126C565446713F00104FD
:105020000665C5D1002900F084804FF40035C0E941
:105030001854032ABCD8DFE802F0AA9A89B45B01AD
:10504000E021802243658164C2660446FBF7C0F913
:1050500094F838302268012B9BD0574B9A4273D07A
:1050600020339A4270D003F578739A4200F0898118
:1050700020339A4200F0858103F578739A4200F05C
:10508000B08120339A4200F0AC814C4B9A4202D05E
:1050900020339A428CD14A4D94F8913003F0FF01AD
:1050A000002B00F06781474B474819681368A0FB45
:1050B000010123F48033090B13608B0019B951E10E
:1050C000002B00F04F811168013BC903F8D4E3685D
:1050D0000221012B84F8911000F07E818B4215BFD4
:1050E0000E462320032022260BBF21270127202143
:1050F0000021A368013B042B00F23181DFE813F0AB
:10510000280169002B016800790180225B0182641B
:105110004365C26699E71B01802140224365816493
:10512000C26692E75B01C021802243658164C2664A
:105130008BE74FF48024C0E91814032A3FF638AFF8
:10514000DFE802F02515042F204DA5E75B08C025F8
:10515000802402294FEA831285644FEA4313C46610
:10516000C0E915237FF471AF082383666DE75B0800
:10517000802202294FEA831482644FEA4313C266F5
:10518000C0E915437FF461AF102383665DE75B08D8
:10519000802440215A0184641B01C166C0E91523A3
:1051A00053E75B08E02480219A0184645B01C166B7
:1051B000C0E9152349E700BF0458014004540058D2
:1051C000005400583C0000201BECCB9500580140D7
:1051D00031464FF40068236A2960002B44D0954B78
:1051E0009A4200F016819448101AB0FA80F04009F3
:1051F000002840F00E81914B9A4200F00481203348
:105200009A4200F000818E4B9A4200F0F6802033E3
:105210009A4200F0F2808B4B9A4200F005818A4B53
:105220009A4200F0FC80A26900EB8000236AB2F58C
:10523000002F4FEA400000F0D680A26A1B02B2F1B4
:10524000806F14BF0122022202FB03F3B0FBF3F3D1
:105250007E4AA2FB0312D20802EB8201A3EB4103B8
:10526000092B08BF013262626268236D32F00207C7
:1052700040F0AC80012B18BF4FF40077FBF7A8F883
:105280006368B0F5005FD4E9111243EA0103C0F08E
:105290008D801A43E36CE16A1A43A06923680A43CC
:1052A0006169A66A0A431968D4F824C002436848B1
:1052B00032430840216918600A4319684FF2200000
:1052C000644E0A4342EA0C5242EA08023A43624FF1
:1052D0001A605968E2690E40216B1143626B5E608F
:1052E00011435E68626E3143E66D3243266E59604B
:1052F00032439968666D0F40A16D013E01399F6090
:1053000032439E6842EA0122A16E3243E66E9A6001
:1053100041EA0602D968666F0840216F42EA0642F8
:10532000444E0139D860D868B34242EA012242EAC9
:105330000002DA6027D0434A934224D0002301229E
:10534000C4F89430184684F8903084F8912030E600
:105350004FF480683FE739464FF400683BE74FF071
:10536000000838E7D4F89430012043F04003C4F833
:1053700094301EE684F89010204602F0DBF9226893
:1053800091E6364D88E66B6C94F8382023F00103E3
:10539000012A6B64D2D1D4E90F23013A43EA021304
:1053A0006B646B6C43F001036B64C7E7E16C1A43F9
:1053B00060690A43E16A23680A43A66919680243DF
:1053C000274832430840D4E909C174E7012B14BFD0
:1053D00000274FF4007751E71320122611271021E0
:1053E00087E6204D58E6626D02FB03F3B0FBF3F352
:1053F0002EE701464FF40068EDE64FF40070FFF72A
:1054000031FC226807E74FF40070FFF72BFC22689D
:10541000F9E64FF48070FFF725FC2268EBE64FF4C5
:105420000060FFF71FFCFEE64FF48060FFF71AFCF8
:105430002268F4E60458014024580140045C01400D
:10544000046001400454005824540058CDCCCCCC06
:1054500010C005F0F01FFFFF0080F8FF005C014066
:1054600010C005F8006001402DE9F8430F460446DE
:105470009046FAF795FF002F5FD0B8FA88F56D09CE
:10548000002D5AD194F89160F6B2012E51D194F8C2
:105490009030012B4DD0D4F880208146DFF8D4C065
:1054A0001220C4F894503946A767434684F8910007
:1054B000104684F89060A4F87C80A4F87E802C4F7D
:1054C000C2F840C0DFF8B0C0D7641565C2F83CC070
:1054D00022681C32FCF780FA0746002831D1626C42
:1054E0006368082A3BD0052061212268023B012B1A
:1054F00088BF014613690B431361136843F40033FB
:10550000136007E0FAF74CFFA0EB0900B0F57A7FD3
:105510001BD82268556915F4E025F3D01368DB0326
:1055200003D4136843F480331360002384F890306D
:1055300000E002273846BDE8F88301273846BDE879
:10554000F88384F890503746F4E7D4F89430032772
:1055500084F8905043F04003C4F89430EAE723F015
:105560000202012A0BBF1520052071216121BCE731
:105570002D570008B556000855560008002953D08D
:10558000F8B5B2FA82F56D09002D4BD190F8917003
:10559000FFB2012F44D190F89030012B40D0044647
:1055A000164622201346D4F884C00A46A16726492D
:1055B000C4F89450A4F87C60A4F87E6084F891004C
:1055C000604684F89070DFF888E0204ECCF84C10EC
:1055D0002168CCF85050CCF840E01C31CCF83C604D
:1055E000FCF7FAF910BB626C6368082A22D0052523
:1055F00061219A1E2368012A88BF29461A690A4335
:105600001A611A6842F400321A601A68D20303D48D
:105610001A6842F480321A60002384F89030F8BD92
:105620000220F8BD0120F8BD0120704784F8905099
:105630003846F8BD23F00202012A0BBF15250525C7
:1056400071216121D5E700BF2D570008C156000820
:105650002157000838B5C369806BB3F5807F19D036
:1056600003680022446C1968082CA0F87E2021F4FD
:1056700000314268196010D06FF061046FF00505C9
:10568000023A1969012A88BF2C4601252140196177
:1056900080F8915000F062FD38BD22F0020101292E
:1056A0000BBF6FF071046FF061046FF015056FF0C0
:1056B0000505E5E708B5806B00F05AFD08BD00BFA1
:1056C00038B5C369806BB3F5807F19D003680025B6
:1056D000446C1968082C426821F400311960A0F864
:1056E0007E5010D06FF061046FF00505023A196921
:1056F000012A88BF2C4601252140196180F891506C
:1057000000F040FD38BD22F0020101290BBF6FF00F
:1057100071046FF061046FF015056FF00505E5E7A2
:1057200008B5806B00F03EFD08BD00BF10B5846B6E
:10573000FCF74CFE022825D0D4F89430226843F0C0
:10574000800314491448C4F894301368096823F49A
:105750000033A0FB010113601068090B20F48030B6
:105760008B00106009B90EE06BB11168013BC903F1
:10577000FAD401220023204684F89120A4F87E3038
:1057800000F0E2FC10BDD4F8943043F04003C4F8BC
:105790009430EEE73C0000201BECCB9510B338B5FD
:1057A00090F82C3004460D4603F0FF02ABB1022303
:1057B000211D206884F82C3000F054F82946D4E9E3
:1057C000000200F08BF8084A01210020136843F022
:1057D0000043136084F82C1038BD80F82D2001F0B0
:1057E00045F9E4E7012070470040005290F82C3062
:1057F000DBB2022B15D070B503F0FB04012C01D0F5
:10580000012070BD022305460E46006885F82C3045
:1058100000F0A6F83368022B05D085F82C40002054
:1058200070BD184670470523002085F82C3070BDE8
:1058300038B590F82C30DBB2022B06D090F82C5003
:10584000EDB2012D03D0012038BD184638BD044605
:105850000223006884F82C3000F094F884F82C506F
:10586000002038BD2DE9F0410F68D1F82480D1E93E
:105870000732D1E901CED1E90365D1E90541BFB1D4
:10588000076813434CEA0E0C134A43EA080327F453
:10589000F8474CEA06063B43354303602C43456812
:1058A00044EA01032A40134343600020BDE8F0812D
:1058B0001A43A7F50047036842EA08021F4042EA7C
:1058C0000C0242EA0E0333432B4323430B433B4377
:1058D00003600020BDE8F0810080FFFFF0B54B6958
:1058E000CC684E68013B8D68013C0F69013ED1F8E0
:1058F00018E0013D0968013F0EF1FF3E240301F16C
:10590000FF3C1B0531012D023F044FEA0E66AAB190
:10591000D0F808E044EA0302104C41EA05030EEA1D
:10592000040443EA0C0314433B4384603343C268DA
:1059300002F070421343C3600020F0BD44EA03024A
:10594000846842EA0C0204F070440A4342EA050308
:105950003B433343234383600020F0BDFF0F0FFF21
:1059600070B4D1E900320446002013432669D1E91E
:1059700002253343013A43EA452343EA42132361B4
:1059800070BC70470246054B002010B45469234098
:105990005DF8044B43EA41015161704701C0FFFFCC
:1059A000764B4FF400207649082230B5196040212B
:1059B0005860C0208BB00C2503241A61D9630022E3
:1059C0000121186418469D61DC629A60009203927E
:1059D0001A751A775A64D960597583F83810996422
:1059E000C3E90922C3E90C22CDE90122CDE9042251
:1059F000CDE90622CDE90822FBF750FA002840F055
:105A0000B980002369465D480093FBF7BDFB002881
:105A100040F0AD805B4B0621052040F2FF7404226C
:105A2000039300230491059003A954480893CDE9FA
:105A30000642FAF743FF002840F096800C23524AB2
:105A40004E480DEB0301CDE90323FAF737FF002899
:105A500040F087804D4A122303A94848CDE903232B
:105A6000FAF72CFF002879D1494A182303A94348A3
:105A7000CDE90323FAF722FF00286CD1454A4FF401
:105A8000807303A93D48CDE90323FAF717FF0028E7
:105A90005ED1414A4FF4837303A93848CDE903230B
:105AA000FAF70CFF002850D13C4A4FF4867303A943
:105AB0003248CDE90323FAF701FF002842D1384AE2
:105AC0004FF4897303A92D48CDE90323FAF7F6FEB5
:105AD000002834D1334A4FF48C7303A92748CDE909
